:0D0DF00000000001010013808284818385D2
:100B7B00C100C1010C47C0F9A4B0999282F88090D2
:100B8B00FFC60B5340792430191202780010FF0B6B
:100B9B005E404F24060B1210470002FF0B69C0CFBB
:100BAB00A4868B9290C78082FF013500042200003F
:100BBB000000013F00013E0001440001210002360C
:100BCB000000023A0000022C0000022E0000022658
:100BDB000000022800000240000002420000024513
:060BEB00000002380000CA
:10077D007E00CFCDCFCECCCE1203B88F23AE36AF09
:10078D00377C037DE81203B87F647E00CFCDCFCEDA
:10079D00CCCE0203B8E533C4F854F0C8E534C454E4
:1007AD000F48F522E534540FF52322E531C4F854F2
:1007BD00F0C8E532C4540F48F524E532540FF52541
:1007CD0022120C4BAF357E00120DB475A0FFC2B7CF
:1007DD00227C037DE8AE3AAF3B0203B87D647C001A
:1007ED00AF03AE020203B8EEC39408748094802266
:1007FD00C2CCC2B2C2CD22C2B2EF1392CDEFC3139F
:10080D00FFD2B222120CCD7D807F8E22AE36AF3755
:10081D007C037DE80203B8C3E537940AE5369400FE
:10082D0022D3E521940074809480227526007527CB
:05083D000075280022F7
:100DB400EF1FAA0670011E4A600FE4FDEDC3947B89
:090DC4007480948050EA0D80F364
:010DCD002203
:100C4B00EFB40A005036900C58F8282873020C8425
:100C5B00020C78020C84020C84020C7C020C8402C1
:100C6B000C84020C80020C84020C84800C753502FF
:0D0C7B0022753504227535032275350522DA
:1006A2008E088F098C0A8D0B75A0FFD2B7C2B6C215
:1006B200B5C2B4E509450870047453800274472535
:1006C20022F8E6F5A0AF221207CED2B6C2B5C2B466
:1006D200E50B6401450A7014AF21FEEF640170045A
:1006E2007453801CEF4E701E74478014E50B450A4C
:1006F2007014E5096401450870047453800274475C
:100702002523F8E6F5A0AF231207CEC2B6D2B5C2B2
:10071200B4E50B6401450A7014AF21FEEF64017069
:1007220004745E801CEF4E701E74698014E50B45E4
:100732000A7014E509640245087004745E8002744C
:10074200692524F8E6F5A0AF241207CEC2B6C2B5D9
:10075200D2B4E509640345087004745380027447F7
:100762002525F8E6F5A0AF25120C4BAF357E001219
:0B0772000DB4C2B7C2B6C2B5C2B422BB
:090CC4007F1E120D99E4FD7F8EE4
:100CCD00D2CCE4FE1207F450061208040E80F5E4AF
:100CDD00FE1207F4500FC2B2ED1392CDEDC313FD0A
:080CED00D2B20E80EC1207FDEB
:010CF50022DC
:100CF600D2CCE4FDED1207F550061208040D80F47F
:100D0600E4FDED1207F55011C2B2EEC313FE30CD6D
:0E0D160003430680D2B20D80E91207FDAF063E
:010D240022AC
:100DCE007F83120CF67531008F327F85120CF6750B
:050DDE0033008F3422F8
:100D2500120CC9AD2B7F80120CCDAD327F82120C17
:100D3500CDAD347F84120CCDAD2F7FC2120CCDAD5D
:090D45002D7FC4120811020CCD2F
:100D4E00120CC9A201E433FD7FCC120CCDA200E43B
:100D5E0033FD7FCA120CCDAD3E7FC8120CCDAD3F18
:080D6E007FC6120811020CCD32
:100D76007FC7120CF68F3F7FC9120CF68F3E7FCBD2
:100D8600120CF6EF24FF92007FCD120CF6EF24FF33
:030D9600920122A5
:100D9900AC07AB05EC25E0FC5304FE4304C0120C80
:0B0DA900C9AF04AD03120811020CCD0D
:0D0DE300EF25E0FF4307014307C0020CF6B7
:100C8800EF4488F5BC000000000000E5BC30E4FB40
:100C980053BCEFE4F5F0120438AFBDE48FF0120452
:100CA8003812040DAEF07802C333CE33CED8F9AD86
:0C0CB800BE7C002DFFEC3E8FF0020438E3
:10090500E5416401454060030209A4F540F541FB5A
:100915007A00793A7F02120C887A0079367F0312C1
:100925000C88AC36AD37E41202B1A804A905AA06B5
:10093500AB07E4FFFE7D807C44120011C004C005B6
:10094500C006C007AC36AD37E41202B17BAE7A47BC
:1009550079C17840120106D003D002D001D000122F
:10096500020F1204B97B977A627935784112001526
:10097500A804A905AA06AB077F007EE07D767C4525
:1009850012020F7B337A13798B78C3120015E4FBBF
:10099500FA79C878421201061202EA8E368F377C40
:1009A500007D321207E2EF7803C333CE33CED8F998
:0509B500F53D8E3C221F
:1009BA00AB07EB64747014120DCE1207A21207B8BB
:1009CA007D017C007F017E00020A4CEB6454704179
:1009DA0012082440161208198F221208197F64126D
:1009EA00077D7F0A1207978F24801B12082450194B
:1009FA0012078A8F2212078A7F0A12077D7E007FDA
:100A0A000A1207998D2475250BE4FDFC7F01FE80EF
:100A1A0031EB646C70361207DE8F221207DEAA04ED
:100A2A00AB051207E98F231207E9AA04AB057D0A71
:100A3A001207EB8F247D0A1207EB8D25E4FDFC7F5C
:0D0A4A0003FE1206A2AF3DAE3C120DB42219
:1005BA0020B0100530E53064067005F530120D25BF
:1005CA0030B0FDAF30EF60046401704720B14412CF
:1005DA0007FD7F1E120DE38F44EF640360327544FA
:1005EA0003AD44120CC4E4F544C3E5449403748097
:1005FA0094805015E544900DF793FFE544900DF073
:10060A0093FD120CCD054480E07D807F8E120CCDC7
:10061A0030B1FDE5306404703D20B13AC3E532944F
:10062A0059E53194004007E4F531F5328008053286
:10063A00E53270020531E532540FC3940AE494009E
:10064A00400CE53254F02410F532E433F53130B180
:10065A00FDE4F52AF52BE5306405703920B136053D
:10066A0034E53470020533540FC3940AE49400400D
:10067A000CE53454F02410F534E433F533C3E5348F
:10068A009424E53394004005E4F533F53430B1FDA4
:08069A00E4F52AF52B020D4ED8
:100BF200758901758A3C758CB0D2A9D28CD2AF7539
:100C02009D7FE4F5BDF5BE75BC801207FD1207FDA0
:100C12007F1E120DE3AC07EC6403602C7C037D03A2
:100C2200120CC4E4FCECC39403748094805012EC64
:100C3200900DF793FFEC900DF093FD120CCD0C800C
:080C4200E47D807F8E120CCDD1
:010C4A002287
:100A57007596FFE4F59575B2F0F5B1120BF2120D2C
:100A6700761205BA120905E530701DE527640145C0
:100A77002670047F54800EE5296401452870047FA1
:100A87006C80027F741209BAE530640170057F74C7
:100A97001209BAE530640270057F541209BAE530CD
:100AA700640370057F6C1209BAE53064047018128C
:100AB700082E40051207B8800675240A75250A1204
:100AC70007A27F741209BAE530640570941207B85B
:100AD70012082E40051207A2800675220A75230AFE
:080AE7007F741209BA020A68CB
:03000B00020842A6
:10084200C0E0C0D075D000C007758A3C758CB00579
:1008520043E543700205420546E54670020545053B
:1008620039E53970020538D39414E5389400400C08
:10087200753800753900754000754101E543641E05
:1008820045427010F542F543E52170047F01800274
:100892007F008F21D3E5469400E54594004010E5A2
:1008A20046942CE54594015006120838752900D368
:1008B200E546942CE54594014016E54694F4E54559
:1008C2009401500C752600752701752800752900C2
:1008D200D3E54694F4E54594014010E54694BCE521
:1008E2004594025006120838752901D3E54694BC96
:1008F200E54594024006754500754600D007D0D004
:03090200D0E03210
:10000E00020356E86480F8E933E83360110460F0C7
:10001E00ED33EC337009E8FCE9FDEAFEEBFF220458
:10002E0060DED3EB9FEA9EE99DE8C2E78CF0C2F753
:10003E0095F0400CE8CCF8E9CDF9EACEFAEBCFFB1F
:10004E0012032185D0F05804700320D5B3E8047054
:10005E00075002B2D502036092D5EC0460F7E4CCEF
:10006E00C0E0C398F8603B94186008400DD0E0FBE8
:10007E00020338E4FBFAC9FC8028E830E406E4C940
:10008E00FBE4CAFCE830E305E4C9CACBFCE854073C
:10009E006010F8C3E913F9EA13FAEB13FBEC13FC47
:1000AE00D8F130F52FC3E49CFCEF9BFFEE9AFEEDEA
:1000BE0099FDD0E0FBEF4E4D4C701222DB03020394
:1000CE005DEC2CFCEF33FFEE33FEED33FDED30E750
:1000DE00EB020338EF2BFFEE3AFEED39FDD0E0FBDD
:1000EE0050130BBB0003020360ED13FDEE13FEEF86
:0800FE0013FFEC13FC020338B0
:10010600EC4D6011E8497017ED33EC3304600DE4F3
:10011600FCFFFEFD22E933E8330470F802035612B1
:10012600032158046009E4CC2481500628500902B2
:10013600036028400302035DC0E0EB4A7044B980C7
:1001460006D0E0FB02034CEF4E701CBD8008EBFFAF
:10015600EAFEE9FD80EBE98DF0A4FEE5F00201EF91
:10016600E9CDF9EAFEEBFFEF89F0A4FCE5F0CE89D4
:10017600F0A42EFFE435F0CD89F0A42DFEE435F091
:100186008067EF4E7005BD80D780C3EF8BF0A4ACBF
:10019600F0EE8BF0A42CFCE435F0F8EF8AF0A42CFA
:1001A600E5F038FCE433CB8DF0A42CFCE5F03BF80D
:1001B600EE8AF0A42CFCE5F038F8E433CF89F0A4FD
:1001C6002CFCE5F038CF3400CE89F0A42FFFE5F003
:1001D6003EFEE433C98DF0A42EFEE5F039CD8AF05B
:1001E600A42FFFE5F03EFEE43DFD33D0E0FB5007D3
:1001F6000BBB000F020360EC2CFCEF33FFEE33FE6B
:06020600ED33FD02033898
:10020C00020360EC5D046005E859047003020356B8
:10021C00120321580460F6EC4860F2EC7004FDFE09
:10022C00FF22C860DB2481C85009C39860025006C5
:10023C0002035D9850CAF582E9294B4A7005AB82DE
:10024C0002034C75F0007C1A7880C3EF9BEE9AED9C
:10025C0099400DC3EF9BFFEE9AFEED99FDE842F03D
:10026C00DC23ACF0D0E0FFD0E0FED0E0FDAB822090
:10027C00E7101BEB60BAEC2CFCEF33FFEE33FEED1A
:10028C0033FD020338E803F830E705C0F075F000E1
:10029C00EF2FFFEE33FEED33FD40B830E7C280AAFE
:1002AC0075F020800E75F010800575F0087D007ECD
:1002BC00007F003392D530D503120457EC33401035
:1002CC00EF33FFEE33FEED33FDEC33FCD5F0ED22D6
:0E02DC00E5F0247EA2D513CC92E7CDCEFF2212
:1002EA00EDD2E7CD33EC3392D524814006E4FFFE0C
:1002FA00FDFC22FCE4CFCECDCC24E0501174FF806B
:10030A00EDC3CC13CCCD13CDCE13CECF13CF047007
:07031A00F030D5DE020457AC
:100485003E9248DA3ECCCCCD3F2AAAAB40000000D4
:100495003F8000003F9837F03FB504F33FD744FC59
:1004A5003E3172173EB172173F0515913EDE5BD99D
:1004B500D2028002C202EDD2E7F8CD33EC330470EC
:1004C5000BBD800592D502036002035640FBD31491
:1004D50060F2F5F07C3FEE7A00C39496C8948B40A9
:1004E500230AC89469C8941A401A0AC89468C8941B
:1004F5001F40110AC8945AC89425400805F07A008F
:10050500CDC2E7CDC0F08C088D098E0A8F0BEA238A
:1005150023C0E02495F582E43404F58312047512B2
:100525000015ECC0E0EDC0E0EEC0E0EFC0E0120465
:1005350065A808A909AA0AAB0B120011D0E0FBD0E7
:10054500E0FAD0E0F9D0E0B2E7F812020F8C088D9E
:10055500098E0A8F0B900485740312036BA808A9F2
:1005650009AA0AAB0B120106D0E0600F24A1F5829F
:10057500E43404F5831204751200158C088D098E78
:100585000A8F0BD0E0C3947FFDE49400FC1202B106
:100595007B187A727931783F120106A808A909AA51
:1005A5000AAB0B12001530020B7BD97A5B79DE782A
:0505B5003E12010622C8
:10032100E9D2E7C933E833F892D5EDD2E7CD33EC22
:0703310033FC5002B2D5229B
:10033800EC30E7100FBF000C0EBE00080DBD000426
:100348000BEB6014A2D5EB13FCED92E7FD2274FFD2
:10035800FCFDFEFF22E480F8A2D574FF13FC7D802B
:03036800E480EF3F
:10036B00C0E0EFFBEEFAEDF9ECF8120106D0E0F588
:10037B00F0EFFBEEFAEDF9ECF8120465A3A3A3A3DF
:10038B00E8C0E0E9C0E0EAC0E0EBC0E0C0F0120179
:10039B0006120475A3A3A3A3120015D0F0D0E0FBA3
:0D03AB00D0E0FAD0E0F9D0E0F8D5F0D4228F
:03000000020AEF02
:0C0AEF00787FE4F6D8FD758173020B36A9
:1003B800BC000BBE0029EF8DF084FFADF022E4CC29
:1003C800F875F008EF2FFFEE33FEEC33FCEE9DECF2
:1003D800984005FCEE9DFE0FD5F0E9E4CEFD22ED38
:1003E800F8F5F0EE8420D21CFEADF075F008EF2F82
:1003F800FFED33FD4007985006D5F0F222C398FD73
:050408000FD5F0EA220F
:10040D00BB010A89828A83E0F5F0A3E022500687BA
:10041D00F009E71922BBFE07E3F5F009E31922897C
:0B042D00828A83E493F5F074019322AF
:10043800BB010A89828A83F0E5F0A3F0225006F70F
:0F04480009A7F01922BBFE06F3E5F009F319220C
:0E045700C3E49FFFE49EFEE49DFDE49CFC22B6
:10046500E493FC740193FD740293FE740393FF22DD
:10047500E493F8740193F9740293FA740393FB22DD
:100AFB00020A57E493A3F8E493A34003F68001F2B0
:100B0B0008DFF48029E493A3F85407240CC8C333FB
:100B1B00C4540F4420C8834004F456800146F6DFCA
:100B2B00E4800B0102040810204080900B7BE47ED4
:100B3B00019360BCA3FF543F30E509541FFEE493BF
:100B4B00A360010ECF54C025E060A840B8E493A386
:100B5B00FAE493A3F8E493A3C8C582C8CAC583CAB1
:100B6B00F0A3C8C582C8CAC583CADFE9DEE780BE69
:010BF1000003
:00000001FF
