:100DAE00745F7368695F66656E00745F66656E5F1B
:100DBE006D69616F0074656D006C756D007365749F
:100DCE0074696E6700000000010100138082848642
:0A0DDE00888C8A81838587898D8BBC
:100C1800C100C1010C4BC0F9A4B0999282F8809030
:100C2800FFC60B5740792430191202780010FF0BC9
:100C380062404F24060B1210470002FF0B6DC0CF15
:100C4800A4868B9290C78082FF01350004220000A1
:100C58000000014100013E00013000014600012171
:100C68000002360000023A00000228002002260096
:100C780000022C0000024700000244000002490064
:050C880000023800002D
:100AE700AE36AF377C037DE81203CAAA04AB057D97
:100AF700647C00AF03AE020203CAE533C4F854F0C6
:100B0700C8E534C4540F48F522E534540FF52322C1
:100B1700A3E493FF120E4EA3E493FF22E531C4F83A
:100B270054F0C8E532C4540F4822120D35AF357E54
:100B370000120EDD75A0FFC2B722AB08AA09A90AE9
:100B470074FF650822EEC394087480948022C2B2B1
:100B5700EF1392CDEFC313FFD2B222C2CCC2B2C2FF
:100B6700CD22120E4E7D807F8E227C037DE802030C
:100B7700CAC3E537940AE53694002275260075271F
:050B870000752C0022A6
:100EDD00EF1FAA0670011E4A600FE4FDEDC3947B5F
:090EED007480948050EA0D80F33A
:010EF60022D9
:100D3500EFB40A005036900D42F8282873020D6E64
:100D4500020D62020D6E020D6E020D66020D6E023F
:100D55000D6E020D6A020D6E020D6E800C75350268
:0D0D650022753504227535032275350522EF
:10070D008E0B8F0C8C0D8D0E75A0FFD2B7C2B6C29D
:10071D00B5C2B4E50C450B700474578002744B25BB
:10072D0022F8E6F5A0AF22120B31D2B6C2B5C2B493
:10073D00E50E6401450D7014AF21FEEF64017004E8
:10074D007457801CEF4E701E744B8014E50E450DD2
:10075D007014E50C6401450B700474578002744BE2
:10076D002523F8E6F5A0AF23120B31C2B6D2B5C2E0
:10077D00B4E50E6401450D7014AF21FEEF640170F8
:10078D00047462801CEF4E701E746D8014E50E456E
:10079D000D7014E50C6402450B70047462800274D4
:1007AD006D2524F8E6F5A0AF24120B31C2B6C2B503
:1007BD00D2B4E50C6403450B700474578002744B7E
:1007CD002525F8E6F5A0AF25120D35AF357E0012C3
:0B07DD000EDDC2B7C2B6C2B5C2B42226
:040E4A00E4FD7F8EB6
:100E4E00D2CCE4FE120B4C5006120B550E80F5E47C
:100E5E00FE120B4C500FC2B2ED1392CDEDC313FD2B
:080E6E00D2B20E80EC120B62FF
:010E76002259
:040DE800A3E493FFEE
:100DEC00D2CCE4FDED120B4D5006120B550D80F4D8
:100DFC00E4FDED120B4D5011C2B2EEC313FE30CD1B
:0E0E0C0003430680D2B20D80E9120B62AF06DE
:010E1A0022B5
:100CF600900DE1E493FF120DEC752A008F2B120D77
:100D0600E87531008F32120DE87533008F34120DFD
:100D1600E87542008F43120DE8753F008F40120DB3
:0F0D2600E87528008F29120DE8752E008F2F22F7
:100E1B00120E4A900DDAE493FFAD2B120E4EAD324B
:100E2B00120B17AD34120B1BAD43120B1BAD401243
:0F0E3B000E4EAD29120B17AD2F120B69020E4E82
:100E7700120E4AA201E433FD7FCC120E4EA200E40B
:100E870033FD7FCA120E4EAD3E7FC8120E4EAD41E6
:080E97007FC6120B69020E4E2A
:100E9F007FC7120DEC8F417FC9120DEC8F3E7FCBB8
:100EAF00120DECEF24FF92007FCD120DECEF24FF1B
:030EBF009201227B
:100EC200AC07AB05EC25E0FC5304FE4304C0120E54
:0B0ED2004AAF04AD03120B69020E4E84
:0D0F0800EF25E0FF4307014307C0020DEC99
:100D7200EF4488F5BC000000000000E5BC30E4FB55
:100D820053BCEFE4F5F012044AAFBDE48FF0120455
:100D92004A12041FAEF07802C333CE33CED8F9AD77
:0C0DA200BE7C002DFFEC3E8FF002044AE6
:100497008B088A09890A74FF900DAE6B7008E965AD
:1004A700827003EA6583700F120CF6120B01120BB0
:1004B70023F524E5328033900DB8120B41700AE51D
:1004C7000A65827004E5096583702E120CF6120B1B
:1004D70023F522E532540FF523E52AC4F854F0C872
:1004E700E52BC4540F48F524E52B540FF5257D0162
:1004F7007C007F017E000205CD900DC3120B417079
:100507000AE50A65827004E50965837052120B7863
:100517004022AE36AF37120B718F22120AE78F23B4
:10052700120AF67E007F0ACFCDCFCECCCE1203CAF9
:100537008F24801F120B78501D120AE78F22120A90
:10054700F6AA04AB057D0A120AF88F237D0A120A60
:10055700F88D2475250BE4FDFC7F01FE0205CDA96E
:100567000A74FF900DC76508700AE50A6582700472
:10057700E5096583702FAE3AAF3B120B718F22AE40
:100587003AAF3B120AEB8F23120AF6AA04AB057D9A
:100597000A120AF88F247D0A120AF88D25E4FDFC59
:1005A7007F03FE8021AB08AA09A90A74FF900DCB2F
:1005B7006508700AE50A65827004E50965837010AD
:1005C7007D01FC7F01FE12070DAF3DAE3C120EDD33
:0105D7002201
:100A3500E5307027E5276401452670087BFF7A0DB0
:100A450079C38014E52D6401452C7BFF70067A0D72
:100A550079C780047A0D79AE120497E53064017088
:100A6500097BFF7A0D79B8120497E53064027009A5
:100A75007BFF7A0D79C3120497E530640370097B17
:100A8500FF7A0D79C7120497E5306404701FE521DC
:100A95006401700D120B23F524E532540FF5258002
:100AA5000675240A75250A120B01120ADDE5306464
:100AB500057024120B23F524E532540FF525D3E5F3
:100AC500219400748094804005120B0180067522E4
:100AD5000A75230A120ADD227BFF7A0D79CB1204EF
:020AE500972256
:10097F00E548640145476003020A1EF547F548FB49
:10098F007A00793A7F02120D727A0079367F03125C
:10099F000D72AC36AD37E41202B1A804A905AA0650
:1009AF00AB07E4FFFE7D807C44120011C004C0053C
:1009BF00C006C007AC36AD37E41202B17BAE7A4742
:1009CF0079C17840120106D003D002D001D00012B5
:1009DF00020F12060C7B977A627935784112001557
:1009EF00A804A905AA06AB077F007EE07D767C45AB
:1009FF0012020F7B337A13798B78C3120015E4FB45
:100A0F00FA79C878421201061202EA8E368F37AE93
:100A1F003AAF3B7C007D321203CA7C007D05120386
:060A2F00B88E3C8F3D2251
:1007E80020B0100530E53064067005F530120E1B98
:1007F80030B0FDAF30EF60046401703320B13012C7
:100808000E4AE4F546C3E546940374809480501577
:10081800E546900DDA93FFE546900DD393FD120E51
:100828004E054680E07D807F8E120E4E30B1FDE58C
:10083800306404703D20B13AC3E5329459E53194EF
:10084800004007E4F531F53280080532E5327002E0
:100858000531E532540FC3940AE49400400CE532A4
:1008680054F02410F532E433F53130B1FDE4F52AC3
:10087800F52BE5306405703920B1360534E5347060
:10088800020533540FC3940AE49400400CE5345431
:10089800F02410F534E433F533C3E5349424E53318
:1008A80094004005E4F533F53430B1FDE4F52AF55C
:0408B8002B020E778A
:100C8E007596FFE4F59575B2F0F5B1758901758A23
:100C9E003C758CB0D2A9D28CD2AF759D7FF5BDF5C7
:100CAE00BE75BC80120B62120B627F1E120F08AC57
:100CBE0007EC640360317C037D037F1E120EC212AB
:100CCE000E4AE4FCECC39403748094805012EC90B2
:100CDE000DDA93FFEC900DD393FD120E4E0C80E4C3
:070CEE007D807F8E120E4E87
:010CF50022DC
:100EF700120C8E120E9F1207E812097F120A358014
:010F0700F5F4
:03000B000208BC2C
:1008BC00C0E0C0D075D000C007758A3C758CB005FF
:1008CC0045E54570020544054AE54A7002054905AF
:1008DC0039E53970020538D39414E5389400400C8E
:1008EC00753800753900754700754801E545641E7B
:1008FC0045447010F544F545E52170047F018002F4
:10090C007F008F21D3E54A9400E54994004010E51F
:10091C004A942CE54994015006120B82752D00D394
:10092C00E54A942CE54994014016E54A94F4E549CE
:10093C009401500C752600752701752C00752D003F
:10094C00D3E54A94F4E54994014010E54A94BCE59A
:10095C004994025006120B82752D01D3E54A94BCC2
:10096C00E54994024006754900754A00D007D0D07D
:03097C00D0E03296
:10000E00020356E86480F8E933E83360110460F0C7
:10001E00ED33EC337009E8FCE9FDEAFEEBFF220458
:10002E0060DED3EB9FEA9EE99DE8C2E78CF0C2F753
:10003E0095F0400CE8CCF8E9CDF9EACEFAEBCFFB1F
:10004E0012032185D0F05804700320D5B3E8047054
:10005E00075002B2D502036092D5EC0460F7E4CCEF
:10006E00C0E0C398F8603B94186008400DD0E0FBE8
:10007E00020338E4FBFAC9FC8028E830E406E4C940
:10008E00FBE4CAFCE830E305E4C9CACBFCE854073C
:10009E006010F8C3E913F9EA13FAEB13FBEC13FC47
:1000AE00D8F130F52FC3E49CFCEF9BFFEE9AFEEDEA
:1000BE0099FDD0E0FBEF4E4D4C701222DB03020394
:1000CE005DEC2CFCEF33FFEE33FEED33FDED30E750
:1000DE00EB020338EF2BFFEE3AFEED39FDD0E0FBDD
:1000EE0050130BBB0003020360ED13FDEE13FEEF86
:0800FE0013FFEC13FC020338B0
:10010600EC4D6011E8497017ED33EC3304600DE4F3
:10011600FCFFFEFD22E933E8330470F802035612B1
:10012600032158046009E4CC2481500628500902B2
:10013600036028400302035DC0E0EB4A7044B980C7
:1001460006D0E0FB02034CEF4E701CBD8008EBFFAF
:10015600EAFEE9FD80EBE98DF0A4FEE5F00201EF91
:10016600E9CDF9EAFEEBFFEF89F0A4FCE5F0CE89D4
:10017600F0A42EFFE435F0CD89F0A42DFEE435F091
:100186008067EF4E7005BD80D780C3EF8BF0A4ACBF
:10019600F0EE8BF0A42CFCE435F0F8EF8AF0A42CFA
:1001A600E5F038FCE433CB8DF0A42CFCE5F03BF80D
:1001B600EE8AF0A42CFCE5F038F8E433CF89F0A4FD
:1001C6002CFCE5F038CF3400CE89F0A42FFFE5F003
:1001D6003EFEE433C98DF0A42EFEE5F039CD8AF05B
:1001E600A42FFFE5F03EFEE43DFD33D0E0FB5007D3
:1001F6000BBB000F020360EC2CFCEF33FFEE33FE6B
:06020600ED33FD02033898
:10020C00020360EC5D046005E859047003020356B8
:10021C00120321580460F6EC4860F2EC7004FDFE09
:10022C00FF22C860DB2481C85009C39860025006C5
:10023C0002035D9850CAF582E9294B4A7005AB82DE
:10024C0002034C75F0007C1A7880C3EF9BEE9AED9C
:10025C0099400DC3EF9BFFEE9AFEED99FDE842F03D
:10026C00DC23ACF0D0E0FFD0E0FED0E0FDAB822090
:10027C00E7101BEB60BAEC2CFCEF33FFEE33FEED1A
:10028C0033FD020338E803F830E705C0F075F000E1
:10029C00EF2FFFEE33FEED33FD40B830E7C280AAFE
:1002AC0075F020800E75F010800575F0087D007ECD
:1002BC00007F003392D530D503120469EC33401023
:1002CC00EF33FFEE33FEED33FDEC33FCD5F0ED22D6
:0E02DC00E5F0247EA2D513CC92E7CDCEFF2212
:1002EA00EDD2E7CD33EC3392D524814006E4FFFE0C
:1002FA00FDFC22FCE4CFCECDCC24E0501174FF806B
:10030A00EDC3CC13CCCD13CDCE13CECF13CF047007
:07031A00F030D5DE0204699A
:1005D8003E9248DA3ECCCCCD3F2AAAAB4000000080
:1005E8003F8000003F9837F03FB504F33FD744FC05
:1005F8003E3172173EB172173F0515913EDE5BD949
:10060800D2028002C202EDD2E7F8CD33EC33047097
:100618000BBD800592D502036002035640FBD3143C
:1006280060F2F5F07C3FEE7A00C39496C8948B4054
:10063800230AC89469C8941A401A0AC89468C894C6
:100648001F40110AC8945AC89425400805F07A003A
:10065800CDC2E7CDC0F08C088D098E0A8F0BEA2336
:1006680023C0E024E8F582E43405F58312048712F8
:100678000015ECC0E0EDC0E0EEC0E0EFC0E0120411
:1006880077A808A909AA0AAB0B120011D0E0FBD081
:10069800E0FAD0E0F9D0E0B2E7F812020F8C088D4A
:1006A800098E0A8F0B9005D8740312036BA808A94A
:1006B80009AA0AAB0B120106D0E0600F24F4F582F8
:1006C800E43405F5831204871200158C088D098E11
:1006D8000A8F0BD0E0C3947FFDE49400FC1202B1B2
:1006E8007B187A727931783F120106A808A909AAFD
:1006F8000AAB0B12001530020B7BD97A5B79DE78D6
:050708003E1201062273
:10032100E9D2E7C933E833F892D5EDD2E7CD33EC22
:0703310033FC5002B2D5229B
:10033800EC30E7100FBF000C0EBE00080DBD000426
:100348000BEB6014A2D5EB13FCED92E7FD2274FFD2
:10035800FCFDFEFF22E480F8A2D574FF13FC7D802B
:03036800E480EF3F
:10036B00C0E0EFFBEEFAEDF9ECF8120106D0E0F588
:10037B00F0EFFBEEFAEDF9ECF8120477A3A3A3A3CD
:10038B00E8C0E0E9C0E0EAC0E0EBC0E0C0F0120179
:10039B0006120487A3A3A3A3120015D0F0D0E0FB91
:0D03AB00D0E0FAD0E0F9D0E0F8D5F0D4228F
:03000000020B8C64
:0C0B8C00787FE4F6D8FD758177020BD36A
:1003B800EF8DF0A4A8F0CF8CF0A428CE8DF0A42E59
:0203C800FE2213
:1003CA00BC000BBE0029EF8DF084FFADF022E4CC17
:1003DA00F875F008EF2FFFEE33FEEC33FCEE9DECE0
:1003EA00984005FCEE9DFE0FD5F0E9E4CEFD22ED26
:1003FA00F8F5F0EE8420D21CFEADF075F008EF2F70
:10040A00FFED33FD4007985006D5F0F222C398FD60
:05041A000FD5F0EA22FD
:10041F00BB010A89828A83E0F5F0A3E022500687A8
:10042F00F009E71922BBFE07E3F5F009E31922896A
:0B043F00828A83E493F5F0740193229D
:10044A00BB010A89828A83F0E5F0A3F0225006F7FD
:0F045A0009A7F01922BBFE06F3E5F009F31922FA
:0E046900C3E49FFFE49EFEE49DFDE49CFC22A4
:10047700E493FC740193FD740293FE740393FF22CB
:10048700E493F8740193F9740293FA740393FB22CB
:100B9800020EF7E493A3F8E493A34003F68001F26E
:100BA80008DFF48029E493A3F85407240CC8C3335E
:100BB800C4540F4420C8834004F456800146F6DF2D
:100BC800E4800B0102040810204080900C18E47E99
:100BD800019360BCA3FF543F30E509541FFEE49322
:100BE800A360010ECF54C025E060A840B8E493A3E9
:100BF800FAE493A3F8E493A3C8C582C8CAC583CA14
:100C0800F0A3C8C582C8CAC583CADFE9DEE780BECB
:010C8D000066
:00000001FF
