:100BF900C101C1030C4EC0F9A4B0999282F880904A
:100C0900FFC60B5A40792430191202780010FF0BE5
:100C190065404F24060B1210470002FF0B70C0CF2E
:100C2900A4868B9290C78082FF04230000000001F4
:100C39004700142C00000000000000000000000024
:100C49000000000000000000012800024C00000123
:100C59002701C102014000C180C104027B000002DA
:070C69002900000221000038
:1009F900AE10AF117C007D1012040D8F23AE10AF25
:100A0900117C007D1002040D75A0FFC2B7D2B6C2D9
:100A1900B5C2B4745A2524F8E6F5A0AF24120DAA7C
:100A2900E5472401FFE433FE120E3F75A0FFC2B76C
:100A3900C2B6D2B5C2B4228D26AF27EF3395E0FEF8
:100A4900D3EF9400EE6480948022AF40EF3395E0B9
:100A5900FEEF22F8E6F5A07F057E00120E3FC2B731
:100A6900C2B6C2B522540FC3940A7480948022740A
:100A7900702525F8E6F5A0AF2522F8E6F5A07F0553
:100A89007E00020E3FAE41AF427C037DE80203B80F
:100A99007D647C00AF03AE020203B8D2B4744E2564
:0D0AA90026F8E6F5A0228F25AE0EAF0F2235
:100E230075A0FFD2B7C2B6C2B5C2B4744E2523F8BB
:0C0E3300E6F5A0AF23120DAAAF477E0029
:100E3F00EF1FAA0670011E4A600FE4FDEDC3947BFD
:090E4F007480948050EA0D80F3D8
:010E58002277
:100DAA00EFB40A005036900DB7F8282873020DE305
:100DBA00020DD7020DE3020DE3020DDB020DE30281
:100DCA000DE3020DDF020DE3020DE3800C7547020D
:0D0DDA002275470422754703227547052244
:100F8200120E23120A11120A78120E3875A0FF12DD
:0D0F92000A67120AA47F04120A62C2B42288
:100D0C00120E23120A424015120A117465120A7A45
:100D1C00120DAAE5472401FFE433FE802975A0FFDC
:100D2C00C2B7D2B6C2B5C2B4744E2524F8E6F5A04B
:100D3C00AF24120DAAAF477E00120A31120A7812A4
:100D4C000DAAAF477E00120E3F75A0FF120A671264
:0D0D5C000AA4AF26120E38120A67C2B42294
:100E5900D2B7C2B6C2B5C2B4744E2523120A83C230
:100E6900B7D2B6C2B5C2B4745A2524120A83120A7B
:100E79003774652525120A5CD2B4744E2526120AE8
:040E89005CC2B42271
:100FE400758901758A3C758CB0D2A9D28CD2AF2296
:1007170020B029120A8720B023C2970540120A5336
:1007270064034E7003120FCF120A5364084E70070A
:10073700F540D2AB120EE930B0FDD297AF40EF33A0
:1007470095E0FE4F701920B116E511B50D11E510B2
:10075700B50C0CE50FB50B07E50EB50A02D205EF90
:1007670064014E703E20B13BC297C3E50F9459E533
:100777000E648094804007E4F50EF50F8008050F9E
:10078700E50F7002050EE50F120A6E400CE50F54D7
:10079700F02410F50FE433F50E30B1FDE4F508F55C
:1007A70009D297120A5364024E703A20B137C297A2
:1007B7000511E51170020510120A6E400CE511547F
:1007C700F02410F511E433F510C3E5119424E51076
:1007D700648094804005E4F510F51130B1FDE4F52F
:1007E70008F509D297120A5364034E703920B136BF
:1007F700C297C3E50B9459E50A648094804007E4E7
:10080700F50AF50B8008050BE50B7002050AE50BE9
:10081700120A6E400CE50B54F02410F50BE433F587
:100827000A30B1FDD297120A5364044E703520B1D5
:1008370032C297050DE50D7002050C120A6E400CC9
:10084700E50D54F02410F50DE433F50CC3E50D94D4
:1008570024E50C648094804005E4F50CF50D30B177
:10086700FDD297120A5364054E701220B10F30B1B2
:10087700FDE51270047F0180027F008F12120A5378
:1008870064064E702520B10F30B1FDE51370047F6B
:100897000180027F008F13AF137E00EF64017004A5
:1008A700C2058006EF4E7002D205120A5364074E46
:0D08B700700820B10530B1FDB206020F122D
:0C100100759D7FE4F5BDF5BE75BC802236
:100DE700EF4488F5BC000000000000E5BC30E4FBE0
:100DF70053BCEFE4F5F012046EAFBDE48FF01204BC
:100E07006E120443AEF07802C333CE33CED8F9ADB9
:0C0E1700BE7C002DFFEC3E8FF002046E4C
:100C83007B007A0079417F03120DE7AC41AD42E46A
:100C93001202B1A804A905AA06AB07E4FFFE7D80F2
:100CA3007C44120011C004C005C006C007AC41ADAE
:100CB30042E41202B17BAE7A4779C1784012010651
:100CC300D003D002D001D00012020F1208F87B9794
:100CD3007A6279357841120015A804A905AA06ABF2
:100CE300077F007EE07D767C4512020F7B337A130B
:100CF300798B78C3120015E4FBFA79C878421201A4
:090D0300061202EA8E418F422221
:1004BB00E4F5147596FFF59575B2F0F5B1120FE4EE
:1004CB00121001120003120D69120FCF120F5FD31E
:1004DB00E5129402748094804009E4F512F513D26E
:1004EB0005C206120717AF40EF3395E04F600302CA
:1004FB00061120003B200638200405120C83D20481
:10050B00120A8E8F23120A8EAA04AB05120A998F38
:10051B0024120A997E007F0ACFCDCFCECCCE120308
:10052B00B88F2575260B120F82AF49AE48120E3FBE
:10053B002000033006AD300357E4F54CF54DC203F4
:10054B00AF280528EF75F002A4242CF9E4FAFB7F01
:10055B0002120DE7C3E528120A714034E4F528F5C1
:10056B0014C3E514120A715018E51425E0242CF875
:10057B00E6FE08E6254DF54DEE354CF54C051480A1
:10058B00E0AE4CAF4D7C007D0A1203B88E458F4612
:10059B00E51264017046AE45AF46FC7D961203B87A
:1005AB00EE7031EF602C14602114601614600B1484
:1005BB007022754800754978802875480075495038
:1005CB008020754800754928801875480075490AC0
:1005DB00801080087548007549B480067548007511
:1005EB004902120FBA1209F98D24AE0EAF0F120A7F
:1005FB000A120AAF120A0A8D26120D0CAF49AE4829
:10060B00120E3F0204EE120A5364014E7021120ABD
:10061B00424011AE0EAF0F120A0A120AAF120A0AAB
:10062B008D26800675250A75260A1209F98D241266
:10063B000A5364024E7022AE0EAF0FFC7D101204F3
:10064B000D120AAF120A0A120A4040071209F98D5D
:10065B0024800675230A75240AE540FB3395E0FADE
:10066B00EB64034A7031120A424014AE0AAF0B120C
:10067B000A0A8F25AE0AAF0B120A0A8D2680067561
:10068B00250A75260AAE0CAF0D120A0A8F23AE0C83
:10069B00AF0D120A0A8D24EB64044A7032AE0AAF16
:1006AB000BFC7D1012040D8F25AE0AAF0B120A0A3C
:1006BB00120A404014AE0CAF0D120A0A8F23AE0C77
:1006CB00AF0D120A0A8D24800675230A75240A12AF
:1006DB000A5364054E700C8512238512248512254E
:1006EB00851226EF64064E700C8513238513248523
:1006FB001325851326EF64074E700BA20633F523E3
:0C070B00F524F525F526120E590204EE27
:03000B00020AB630
:090AB600C0E0C0D075D000C007FB
:100ABF00758A3C758CB0057CE57C7002057B052A38
:100ACF00E52A700205290522E52270020521D3943B
:100ADF0002E521648094804008752100752200D2C0
:100AEF0003E57C6428457B702FF57BF57CC204E51C
:100AFF002770047F0180027F008F27200518E511E2
:100B0F00B50D13E510B50C0EE50FB50B09E50EB5D8
:100B1F000A04B2978002D297D3E52A9400E529946C
:100B2F0000400CE52A945EE52994015002D200D3CF
:100B3F00E52A945EE5299401400CE52A94F4E52911
:100B4F0094015002C200D3E52A94F4E529940140A0
:070B5F0006752900752A004C
:070B6600D007D0D0D0E0322F
:0A100D0080828455171501011313AA
:100C7000020A0000020C0000011300011200C1056D
:020C8000C106AB
:100F3A00EEC394087480948022C2B2EF139281EFB8
:100F4A00C313FFD2B222C280C2B2C28122120EC021
:050F5A007D807F8E2266
:040EBC00E4FD7F8E44
:100EC000D280E4FE120F3A5006120F430E80F5E472
:100ED000FE120F3A500FC2B2ED139281EDC313FD13
:080EE000D2B20E80EC120F509B
:010EE80022E7
:100E8D00D280E4FDED120F3B5006120F430D80F49E
:100E9D00E4FDED120F3B5011C2B2EEC313FE3081D3
:0E0EAD0003430680D2B20D80E9120F50AF064B
:010EBB002214
:100FBA007F83120E8D750E008F0F7F85120E8D7531
:050FCA0010008F112250
:100EE900120EBCAD097F80120EC0AD0F7F82120EAB
:100EF900C0AD117F84120EC0AD0D7FC2120EC0AD00
:090F09000B7FC4120F57020EC049
:100FCF007FC3120E8D750C008F0D7FC5120E8D75A0
:050FDF000A008F0B2247
:100F1200120EBCA206E433FD7FCC120EC0A205E481
:100F220033FD7FCA120EC0AD127FC8120EC0AD13C0
:080F32007FC6120F57020EC02A
:100F5F007FC7120E8D8F137FC9120E8D8F127FCB0D
:100F6F00120E8DEF24FF92057FCD120E8DEF24FF11
:030F7F00920622B5
:100F9F00AC07AB05EC25E0FC5304FE4304C0120E76
:0B0FAF00BCAF04AD03120F57020EC0D0
:0D0FF400EF25E0FF4307014307C0020E8D0B
:100D6900120F507F1E120FF4AC07EC640360317C44
:100D7900037D037F1E120F9F120EBCE4FCECC3948B
:100D890003748094805012EC90100D93FFEC901036
:100D99001093FD120EC00C80E47D807F8E120EC070
:010DA9002227
:04000300120F502266
:10000E00020356E86480F8E933E83360110460F0C7
:10001E00ED33EC337009E8FCE9FDEAFEEBFF220458
:10002E0060DED3EB9FEA9EE99DE8C2E78CF0C2F753
:10003E0095F0400CE8CCF8E9CDF9EACEFAEBCFFB1F
:10004E0012032185D0F05804700320D5B3E8047054
:10005E00075002B2D502036092D5EC0460F7E4CCEF
:10006E00C0E0C398F8603B94186008400DD0E0FBE8
:10007E00020338E4FBFAC9FC8028E830E406E4C940
:10008E00FBE4CAFCE830E305E4C9CACBFCE854073C
:10009E006010F8C3E913F9EA13FAEB13FBEC13FC47
:1000AE00D8F130F52FC3E49CFCEF9BFFEE9AFEEDEA
:1000BE0099FDD0E0FBEF4E4D4C701222DB03020394
:1000CE005DEC2CFCEF33FFEE33FEED33FDED30E750
:1000DE00EB020338EF2BFFEE3AFEED39FDD0E0FBDD
:1000EE0050130BBB0003020360ED13FDEE13FEEF86
:0800FE0013FFEC13FC020338B0
:10010600EC4D6011E8497017ED33EC3304600DE4F3
:10011600FCFFFEFD22E933E8330470F802035612B1
:10012600032158046009E4CC2481500628500902B2
:10013600036028400302035DC0E0EB4A7044B980C7
:1001460006D0E0FB02034CEF4E701CBD8008EBFFAF
:10015600EAFEE9FD80EBE98DF0A4FEE5F00201EF91
:10016600E9CDF9EAFEEBFFEF89F0A4FCE5F0CE89D4
:10017600F0A42EFFE435F0CD89F0A42DFEE435F091
:100186008067EF4E7005BD80D780C3EF8BF0A4ACBF
:10019600F0EE8BF0A42CFCE435F0F8EF8AF0A42CFA
:1001A600E5F038FCE433CB8DF0A42CFCE5F03BF80D
:1001B600EE8AF0A42CFCE5F038F8E433CF89F0A4FD
:1001C6002CFCE5F038CF3400CE89F0A42FFFE5F003
:1001D6003EFEE433C98DF0A42EFEE5F039CD8AF05B
:1001E600A42FFFE5F03EFEE43DFD33D0E0FB5007D3
:1001F6000BBB000F020360EC2CFCEF33FFEE33FE6B
:06020600ED33FD02033898
:10020C00020360EC5D046005E859047003020356B8
:10021C00120321580460F6EC4860F2EC7004FDFE09
:10022C00FF22C860DB2481C85009C39860025006C5
:10023C0002035D9850CAF582E9294B4A7005AB82DE
:10024C0002034C75F0007C1A7880C3EF9BEE9AED9C
:10025C0099400DC3EF9BFFEE9AFEED99FDE842F03D
:10026C00DC23ACF0D0E0FFD0E0FED0E0FDAB822090
:10027C00E7101BEB60BAEC2CFCEF33FFEE33FEED1A
:10028C0033FD020338E803F830E705C0F075F000E1
:10029C00EF2FFFEE33FEED33FD40B830E7C280AAFE
:1002AC0075F020800E75F010800575F0087D007ECD
:1002BC00007F003392D530D50312048DEC334010FF
:1002CC00EF33FFEE33FEED33FDEC33FCD5F0ED22D6
:0E02DC00E5F0247EA2D513CC92E7CDCEFF2212
:1002EA00EDD2E7CD33EC3392D524814006E4FFFE0C
:1002FA00FDFC22FCE4CFCECDCC24E0501174FF806B
:10030A00EDC3CC13CCCD13CDCE13CECF13CF047007
:07031A00F030D5DE02048D76
:1008C4003E9248DA3ECCCCCD3F2AAAAB4000000091
:1008D4003F8000003F9837F03FB504F33FD744FC16
:1008E4003E3172173EB172173F0515913EDE5BD95A
:1008F400D2078002C207EDD2E7F8CD33EC3304709F
:100904000BBD800592D502036002035640FBD3144D
:1009140060F2F5F07C3FEE7A00C39496C8948B4065
:10092400230AC89469C8941A401A0AC89468C894D7
:100934001F40110AC8945AC89425400805F07A004B
:10094400CDC2E7CDC0F08C158D168E178F18EA2313
:1009540023C0E024D4F582E43408F5831204AB12F6
:100964000015ECC0E0EDC0E0EEC0E0EFC0E0120422
:100974009BA815A916AA17AB18120011D0E0FBD03A
:10098400E0FAD0E0F9D0E0B2E7F812020F8C158D4E
:10099400168E178F189008C4740312036BA815A938
:1009A40016AA17AB18120106D0E0600F24E0F582F6
:1009B400E43408F5831204AB1200158C158D168EE1
:1009C400178F18D0E0C3947FFDE49400FC1202B1A9
:1009D4007B187A727931783F120106A815A916AAF4
:1009E40017AB1812001530070B7BD97A5B79DE78C8
:0509F4003E1201062285
:10032100E9D2E7C933E833F892D5EDD2E7CD33EC22
:0703310033FC5002B2D5229B
:10033800EC30E7100FBF000C0EBE00080DBD000426
:100348000BEB6014A2D5EB13FCED92E7FD2274FFD2
:10035800FCFDFEFF22E480F8A2D574FF13FC7D802B
:03036800E480EF3F
:10036B00C0E0EFFBEEFAEDF9ECF8120106D0E0F588
:10037B00F0EFFBEEFAEDF9ECF812049BA3A3A3A3A9
:10038B00E8C0E0E9C0E0EAC0E0EBC0E0C0F0120179
:10039B00061204ABA3A3A3A3120015D0F0D0E0FB6D
:0D03AB00D0E0FAD0E0F9D0E0F8D5F0D4228F
:03000000020B6D83
:0C0B6D00787FE4F6D8FD75817C020BB4A3
:1003B800BC000BBE0029EF8DF084FFADF022E4CC29
:1003C800F875F008EF2FFFEE33FEEC33FCEE9DECF2
:1003D800984005FCEE9DFE0FD5F0E9E4CEFD22ED38
:1003E800F8F5F0EE8420D21CFEADF075F008EF2F82
:1003F800FFED33FD4007985006D5F0F222C398FD73
:050408000FD5F0EA220F
:10040D00C2D5EC30E709B2D5E4C39DFDE49CFCEE0A
:10041D0030E715B2D5E4C39FFFE49EFE1203B8C3C7
:10042D00E49DFDE49CFC80031203B830D507C3E4C2
:06043D009FFFE49EFE2279
:10044300BB010A89828A83E0F5F0A3E02250068784
:10045300F009E71922BBFE07E3F5F009E319228946
:0B046300828A83E493F5F07401932279
:10046E00BB010A89828A83F0E5F0A3F0225006F7D9
:0F047E0009A7F01922BBFE06F3E5F009F31922D6
:0E048D00C3E49FFFE49EFEE49DFDE49CFC2280
:10049B00E493FC740193FD740293FE740393FF22A7
:1004AB00E493F8740193F9740293FA740393FB22A7
:100B79000204BBE493A3F8E493A34003F68001F2D3
:100B890008DFF48029E493A3F85407240CC8C3337D
:100B9900C4540F4420C8834004F456800146F6DF4C
:100BA900E4800B0102040810204080900BF9E47ED8
:100BB900019360BCA3FF543F30E509541FFEE49341
:100BC900A360010ECF54C025E060A840B8E493A308
:100BD900FAE493A3F8E493A3C8C582C8CAC583CA33
:100BE900F0A3C8C582C8CAC583CADFE9DEE780BEEB
:010C82000071
:00000001FF
